{
  "_format": "hh-sol-artifact-1",
  "contractName": "MyEpicNFT",
  "sourceName": "contracts/MyEpicNFT.sol",
  "abi": [
    {
      "inputs": [],
      "stateMutability": "nonpayable",
      "type": "constructor"
    },
    {
      "anonymous": false,
      "inputs": [
        {
          "indexed": true,
          "internalType": "address",
          "name": "owner",
          "type": "address"
        },
        {
          "indexed": true,
          "internalType": "address",
          "name": "approved",
          "type": "address"
        },
        {
          "indexed": true,
          "internalType": "uint256",
          "name": "tokenId",
          "type": "uint256"
        }
      ],
      "name": "Approval",
      "type": "event"
    },
    {
      "anonymous": false,
      "inputs": [
        {
          "indexed": true,
          "internalType": "address",
          "name": "owner",
          "type": "address"
        },
        {
          "indexed": true,
          "internalType": "address",
          "name": "operator",
          "type": "address"
        },
        {
          "indexed": false,
          "internalType": "bool",
          "name": "approved",
          "type": "bool"
        }
      ],
      "name": "ApprovalForAll",
      "type": "event"
    },
    {
      "anonymous": false,
      "inputs": [
        {
          "indexed": false,
          "internalType": "address",
          "name": "sender",
          "type": "address"
        },
        {
          "indexed": false,
          "internalType": "uint256",
          "name": "tokenId",
          "type": "uint256"
        }
      ],
      "name": "NewEpicNFTMinted",
      "type": "event"
    },
    {
      "anonymous": false,
      "inputs": [
        {
          "indexed": true,
          "internalType": "address",
          "name": "from",
          "type": "address"
        },
        {
          "indexed": true,
          "internalType": "address",
          "name": "to",
          "type": "address"
        },
        {
          "indexed": true,
          "internalType": "uint256",
          "name": "tokenId",
          "type": "uint256"
        }
      ],
      "name": "Transfer",
      "type": "event"
    },
    {
      "inputs": [
        {
          "internalType": "address",
          "name": "to",
          "type": "address"
        },
        {
          "internalType": "uint256",
          "name": "tokenId",
          "type": "uint256"
        }
      ],
      "name": "approve",
      "outputs": [],
      "stateMutability": "nonpayable",
      "type": "function"
    },
    {
      "inputs": [
        {
          "internalType": "address",
          "name": "owner",
          "type": "address"
        }
      ],
      "name": "balanceOf",
      "outputs": [
        {
          "internalType": "uint256",
          "name": "",
          "type": "uint256"
        }
      ],
      "stateMutability": "view",
      "type": "function"
    },
    {
      "inputs": [
        {
          "internalType": "uint256",
          "name": "tokenId",
          "type": "uint256"
        }
      ],
      "name": "getApproved",
      "outputs": [
        {
          "internalType": "address",
          "name": "",
          "type": "address"
        }
      ],
      "stateMutability": "view",
      "type": "function"
    },
    {
      "inputs": [],
      "name": "getMintCount",
      "outputs": [
        {
          "internalType": "uint256",
          "name": "",
          "type": "uint256"
        }
      ],
      "stateMutability": "view",
      "type": "function"
    },
    {
      "inputs": [
        {
          "internalType": "address",
          "name": "owner",
          "type": "address"
        },
        {
          "internalType": "address",
          "name": "operator",
          "type": "address"
        }
      ],
      "name": "isApprovedForAll",
      "outputs": [
        {
          "internalType": "bool",
          "name": "",
          "type": "bool"
        }
      ],
      "stateMutability": "view",
      "type": "function"
    },
    {
      "inputs": [],
      "name": "makeAnEpicNFT",
      "outputs": [],
      "stateMutability": "nonpayable",
      "type": "function"
    },
    {
      "inputs": [],
      "name": "name",
      "outputs": [
        {
          "internalType": "string",
          "name": "",
          "type": "string"
        }
      ],
      "stateMutability": "view",
      "type": "function"
    },
    {
      "inputs": [
        {
          "internalType": "uint256",
          "name": "tokenId",
          "type": "uint256"
        }
      ],
      "name": "ownerOf",
      "outputs": [
        {
          "internalType": "address",
          "name": "",
          "type": "address"
        }
      ],
      "stateMutability": "view",
      "type": "function"
    },
    {
      "inputs": [
        {
          "internalType": "uint256",
          "name": "tokenId",
          "type": "uint256"
        }
      ],
      "name": "pickRandomFirstWord",
      "outputs": [
        {
          "internalType": "string",
          "name": "",
          "type": "string"
        }
      ],
      "stateMutability": "view",
      "type": "function"
    },
    {
      "inputs": [
        {
          "internalType": "uint256",
          "name": "tokenId",
          "type": "uint256"
        }
      ],
      "name": "pickRandomSecondWord",
      "outputs": [
        {
          "internalType": "string",
          "name": "",
          "type": "string"
        }
      ],
      "stateMutability": "view",
      "type": "function"
    },
    {
      "inputs": [
        {
          "internalType": "uint256",
          "name": "tokenId",
          "type": "uint256"
        }
      ],
      "name": "pickRandomThirdWord",
      "outputs": [
        {
          "internalType": "string",
          "name": "",
          "type": "string"
        }
      ],
      "stateMutability": "view",
      "type": "function"
    },
    {
      "inputs": [
        {
          "internalType": "address",
          "name": "from",
          "type": "address"
        },
        {
          "internalType": "address",
          "name": "to",
          "type": "address"
        },
        {
          "internalType": "uint256",
          "name": "tokenId",
          "type": "uint256"
        }
      ],
      "name": "safeTransferFrom",
      "outputs": [],
      "stateMutability": "nonpayable",
      "type": "function"
    },
    {
      "inputs": [
        {
          "internalType": "address",
          "name": "from",
          "type": "address"
        },
        {
          "internalType": "address",
          "name": "to",
          "type": "address"
        },
        {
          "internalType": "uint256",
          "name": "tokenId",
          "type": "uint256"
        },
        {
          "internalType": "bytes",
          "name": "data",
          "type": "bytes"
        }
      ],
      "name": "safeTransferFrom",
      "outputs": [],
      "stateMutability": "nonpayable",
      "type": "function"
    },
    {
      "inputs": [
        {
          "internalType": "address",
          "name": "operator",
          "type": "address"
        },
        {
          "internalType": "bool",
          "name": "approved",
          "type": "bool"
        }
      ],
      "name": "setApprovalForAll",
      "outputs": [],
      "stateMutability": "nonpayable",
      "type": "function"
    },
    {
      "inputs": [
        {
          "internalType": "bytes4",
          "name": "interfaceId",
          "type": "bytes4"
        }
      ],
      "name": "supportsInterface",
      "outputs": [
        {
          "internalType": "bool",
          "name": "",
          "type": "bool"
        }
      ],
      "stateMutability": "view",
      "type": "function"
    },
    {
      "inputs": [],
      "name": "symbol",
      "outputs": [
        {
          "internalType": "string",
          "name": "",
          "type": "string"
        }
      ],
      "stateMutability": "view",
      "type": "function"
    },
    {
      "inputs": [
        {
          "internalType": "uint256",
          "name": "tokenId",
          "type": "uint256"
        }
      ],
      "name": "tokenURI",
      "outputs": [
        {
          "internalType": "string",
          "name": "",
          "type": "string"
        }
      ],
      "stateMutability": "view",
      "type": "function"
    },
    {
      "inputs": [
        {
          "internalType": "address",
          "name": "from",
          "type": "address"
        },
        {
          "internalType": "address",
          "name": "to",
          "type": "address"
        },
        {
          "internalType": "uint256",
          "name": "tokenId",
          "type": "uint256"
        }
      ],
      "name": "transferFrom",
      "outputs": [],
      "stateMutability": "nonpayable",
      "type": "function"
    }
  ],
  "bytecode": "0x60806040526032600860006101000a81548160ff021916908360ff16021790555060405180610160016040528061012f81526020016200523561012f9139600990816200004d9190620013c2565b506040518061028001604052806040518060400160405280600581526020017f6d6f74656c00000000000000000000000000000000000000000000000000000081525081526020016040518060400160405280600581526020017f7461626c6500000000000000000000000000000000000000000000000000000081525081526020016040518060400160405280600581526020017f686170707900000000000000000000000000000000000000000000000000000081525081526020016040518060400160405280600581526020017f7368696e6500000000000000000000000000000000000000000000000000000081525081526020016040518060400160405280600581526020017f736d696c6500000000000000000000000000000000000000000000000000000081525081526020016040518060400160405280600581526020017f6170706c6500000000000000000000000000000000000000000000000000000081525081526020016040518060400160405280600581526020017f706561636500000000000000000000000000000000000000000000000000000081525081526020016040518060400160405280600581526020017f776f6d616e00000000000000000000000000000000000000000000000000000081525081526020016040518060400160405280600581526020017f6661626c6500000000000000000000000000000000000000000000000000000081525081526020016040518060400160405280600581526020017f627265616400000000000000000000000000000000000000000000000000000081525081526020016040518060400160405280600581526020017f666c6f6f6400000000000000000000000000000000000000000000000000000081525081526020016040518060400160405280600581526020017f73746f726500000000000000000000000000000000000000000000000000000081525081526020016040518060400160405280600581526020017f686f6e657900000000000000000000000000000000000000000000000000000081525081526020016040518060400160405280600581526020017f627261766500000000000000000000000000000000000000000000000000000081525081526020016040518060400160405280600581526020017f73706f6f6e00000000000000000000000000000000000000000000000000000081525081526020016040518060400160405280600581526020017f717565656e00000000000000000000000000000000000000000000000000000081525081526020016040518060400160405280600581526020017f6d61706c6500000000000000000000000000000000000000000000000000000081525081526020016040518060400160405280600581526020017f706c616e7400000000000000000000000000000000000000000000000000000081525081526020016040518060400160405280600581526020017f776f726c6400000000000000000000000000000000000000000000000000000081525081526020016040518060400160405280600581526020017f636f6c6f72000000000000000000000000000000000000000000000000000000815250815250600a9060146200050692919062000ffb565b506040518061028001604052806040518060400160405280600581526020017f677261737300000000000000000000000000000000000000000000000000000081525081526020016040518060400160405280600581526020017f6a7569636500000000000000000000000000000000000000000000000000000081525081526020016040518060400160405280600581526020017f686f72736500000000000000000000000000000000000000000000000000000081525081526020016040518060400160405280600581526020017f647265616d00000000000000000000000000000000000000000000000000000081525081526020016040518060400160405280600581526020017f737069636500000000000000000000000000000000000000000000000000000081525081526020016040518060400160405280600581526020017f726976657200000000000000000000000000000000000000000000000000000081525081526020016040518060400160405280600581526020017f736f756e6400000000000000000000000000000000000000000000000000000081525081526020016040518060400160405280600581526020017f6a6f6c6c7900000000000000000000000000000000000000000000000000000081525081526020016040518060400160405280600581526020017f626c6f6f6d00000000000000000000000000000000000000000000000000000081525081526020016040518060400160405280600581526020017f6c6967687400000000000000000000000000000000000000000000000000000081525081526020016040518060400160405280600581526020017f636865737300000000000000000000000000000000000000000000000000000081525081526020016040518060400160405280600581526020017f747269636b00000000000000000000000000000000000000000000000000000081525081526020016040518060400160405280600581526020017f6d6174636800000000000000000000000000000000000000000000000000000081525081526020016040518060400160405280600581526020017f707269646500000000000000000000000000000000000000000000000000000081525081526020016040518060400160405280600581526020017f747261646500000000000000000000000000000000000000000000000000000081525081526020016040518060400160405280600581526020017f666169746800000000000000000000000000000000000000000000000000000081525081526020016040518060400160405280600581526020017f686561727400000000000000000000000000000000000000000000000000000081525081526020016040518060400160405280600581526020017f616e67656c00000000000000000000000000000000000000000000000000000081525081526020016040518060400160405280600581526020017f6472616d6100000000000000000000000000000000000000000000000000000081525081526020016040518060400160405280600581526020017f666c757465000000000000000000000000000000000000000000000000000000815250815250600b906014620009bf92919062000ffb565b506040518061026001604052806040518060400160405280600581526020017f696d61676500000000000000000000000000000000000000000000000000000081525081526020016040518060400160405280600581526020017f676966747300000000000000000000000000000000000000000000000000000081525081526020016040518060400160405280600581526020017f626561726400000000000000000000000000000000000000000000000000000081525081526020016040518060400160405280600581526020017f627269736b00000000000000000000000000000000000000000000000000000081525081526020016040518060400160405280600581526020017f776173746500000000000000000000000000000000000000000000000000000081525081526020016040518060400160405280600581526020017f6a6f6b657200000000000000000000000000000000000000000000000000000081525081526020016040518060400160405280600581526020017f676c6f6f6d00000000000000000000000000000000000000000000000000000081525081526020016040518060400160405280600581526020017f6c6175676800000000000000000000000000000000000000000000000000000081525081526020016040518060400160405280600581526020017f736d69726b00000000000000000000000000000000000000000000000000000081525081526020016040518060400160405280600581526020017f6d7573696300000000000000000000000000000000000000000000000000000081525081526020016040518060400160405280600581526020017f746967657200000000000000000000000000000000000000000000000000000081525081526020016040518060400160405280600581526020017f747265617400000000000000000000000000000000000000000000000000000081525081526020016040518060400160405280600581526020017f63616e647900000000000000000000000000000000000000000000000000000081525081526020016040518060400160405280600581526020017f666169746800000000000000000000000000000000000000000000000000000081525081526020016040518060400160405280600581526020017f726164696f00000000000000000000000000000000000000000000000000000081525081526020016040518060400160405280600581526020017f626c6f6f6d00000000000000000000000000000000000000000000000000000081525081526020016040518060400160405280600581526020017f736861726b00000000000000000000000000000000000000000000000000000081525081526020016040518060400160405280600581526020017f6b6e69666500000000000000000000000000000000000000000000000000000081525081526020016040518060400160405280600581526020017f676c6f6265000000000000000000000000000000000000000000000000000000815250815250600c90601362000e3d9291906200105b565b5034801562000e4b57600080fd5b506040518060400160405280600981526020017f5371756172654e465400000000000000000000000000000000000000000000008152506040518060400160405280600681526020017f5351554152450000000000000000000000000000000000000000000000000000815250816000908162000ec99190620013c2565b50806001908162000edb9190620013c2565b50505062000f296040518060400160405280601781526020017f54686973206973206d79204e465420636f6e747261637400000000000000000081525062000f2f60201b620011301760201c565b6200155c565b62000fcf8160405160240162000f46919062001538565b6040516020818303038152906040527f41304fac000000000000000000000000000000000000000000000000000000007bffffffffffffffffffffffffffffffffffffffffffffffffffffffff19166020820180517bffffffffffffffffffffffffffffffffffffffffffffffffffffffff838183161783525050505062000fd260201b60201c565b50565b60008151905060006a636f6e736f6c652e6c6f679050602083016000808483855afa5050505050565b82805482825590600052602060002090810192821562001048579160200282015b8281111562001047578251829081620010369190620013c2565b50916020019190600101906200101c565b5b509050620010579190620010bb565b5090565b828054828255906000526020600020908101928215620010a8579160200282015b82811115620010a7578251829081620010969190620013c2565b50916020019190600101906200107c565b5b509050620010b79190620010bb565b5090565b5b80821115620010df5760008181620010d59190620010e3565b50600101620010bc565b5090565b508054620010f190620011b1565b6000825580601f1062001105575062001126565b601f01602090049060005260206000209081019062001125919062001129565b5b50565b5b80821115620011445760008160009055506001016200112a565b5090565b600081519050919050565b7f4e487b7100000000000000000000000000000000000000000000000000000000600052604160045260246000fd5b7f4e487b7100000000000000000000000000000000000000000000000000000000600052602260045260246000fd5b60006002820490506001821680620011ca57607f821691505b602082108103620011e057620011df62001182565b5b50919050565b60008190508160005260206000209050919050565b60006020601f8301049050919050565b600082821b905092915050565b6000600883026200124a7fffffffffffffffffffffffffffffffffffffffffffffffffffffffffffffffff826200120b565b6200125686836200120b565b95508019841693508086168417925050509392505050565b6000819050919050565b6000819050919050565b6000620012a36200129d62001297846200126e565b62001278565b6200126e565b9050919050565b6000819050919050565b620012bf8362001282565b620012d7620012ce82620012aa565b84845462001218565b825550505050565b600090565b620012ee620012df565b620012fb818484620012b4565b505050565b5b81811015620013235762001317600082620012e4565b60018101905062001301565b5050565b601f82111562001372576200133c81620011e6565b6200134784620011fb565b8101602085101562001357578190505b6200136f6200136685620011fb565b83018262001300565b50505b505050565b600082821c905092915050565b6000620013976000198460080262001377565b1980831691505092915050565b6000620013b2838362001384565b9150826002028217905092915050565b620013cd8262001148565b67ffffffffffffffff811115620013e957620013e862001153565b5b620013f58254620011b1565b6200140282828562001327565b600060209050601f8311600181146200143a576000841562001425578287015190505b620014318582620013a4565b865550620014a1565b601f1984166200144a86620011e6565b60005b8281101562001474578489015182556001820191506020850194506020810190506200144d565b8683101562001494578489015162001490601f89168262001384565b8355505b6001600288020188555050505b505050505050565b600082825260208201905092915050565b60005b83811015620014da578082015181840152602081019050620014bd565b60008484015250505050565b6000601f19601f8301169050919050565b6000620015048262001148565b620015108185620014a9565b935062001522818560208601620014ba565b6200152d81620014e6565b840191505092915050565b60006020820190508181036000830152620015548184620014f7565b905092915050565b613cc9806200156c6000396000f3fe608060405234801561001057600080fd5b50600436106101165760003560e01c80638fc3b549116100a2578063b88d4fde11610071578063b88d4fde14610305578063c575757a14610321578063c87b56dd14610351578063de9d132f14610381578063e985e9c51461038b57610116565b80638fc3b5491461027d57806395d89b411461029b578063a22cb465146102b9578063b187301f146102d557610116565b806323b872dd116100e957806323b872dd146101b55780632de38d68146101d157806342842e0e146102015780636352211e1461021d57806370a082311461024d57610116565b806301ffc9a71461011b57806306fdde031461014b578063081812fc14610169578063095ea7b314610199575b600080fd5b6101356004803603810190610130919061254a565b6103bb565b6040516101429190612592565b60405180910390f35b61015361049d565b604051610160919061263d565b60405180910390f35b610183600480360381019061017e9190612695565b61052f565b6040516101909190612703565b60405180910390f35b6101b360048036038101906101ae919061274a565b610575565b005b6101cf60048036038101906101ca919061278a565b61068c565b005b6101eb60048036038101906101e69190612695565b6106ec565b6040516101f8919061263d565b60405180910390f35b61021b6004803603810190610216919061278a565b610862565b005b61023760048036038101906102329190612695565b610882565b6040516102449190612703565b60405180910390f35b610267600480360381019061026291906127dd565b610908565b6040516102749190612819565b60405180910390f35b6102856109bf565b6040516102929190612819565b60405180910390f35b6102a36109d0565b6040516102b0919061263d565b60405180910390f35b6102d360048036038101906102ce9190612860565b610a62565b005b6102ef60048036038101906102ea9190612695565b610a78565b6040516102fc919061263d565b60405180910390f35b61031f600480360381019061031a91906129d5565b610b70565b005b61033b60048036038101906103369190612695565b610bd2565b604051610348919061263d565b60405180910390f35b61036b60048036038101906103669190612695565b610cca565b604051610378919061263d565b60405180910390f35b610389610ddc565b005b6103a560048036038101906103a09190612a58565b61109c565b6040516103b29190612592565b60405180910390f35b60007f80ac58cd000000000000000000000000000000000000000000000000000000007bffffffffffffffffffffffffffffffffffffffffffffffffffffffff1916827bffffffffffffffffffffffffffffffffffffffffffffffffffffffff1916148061048657507f5b5e139f000000000000000000000000000000000000000000000000000000007bffffffffffffffffffffffffffffffffffffffffffffffffffffffff1916827bffffffffffffffffffffffffffffffffffffffffffffffffffffffff1916145b806104965750610495826111c9565b5b9050919050565b6060600080546104ac90612ac7565b80601f01602080910402602001604051908101604052809291908181526020018280546104d890612ac7565b80156105255780601f106104fa57610100808354040283529160200191610525565b820191906000526020600020905b81548152906001019060200180831161050857829003601f168201915b5050505050905090565b600061053a82611233565b6004600083815260200190815260200160002060009054906101000a900473ffffffffffffffffffffffffffffffffffffffff169050919050565b600061058082610882565b90508073ffffffffffffffffffffffffffffffffffffffff168373ffffffffffffffffffffffffffffffffffffffff16036105f0576040517f08c379a00000000000000000000000000000000000000000000000000000000081526004016105e790612b6a565b60405180910390fd5b8073ffffffffffffffffffffffffffffffffffffffff1661060f61127e565b73ffffffffffffffffffffffffffffffffffffffff16148061063e575061063d8161063861127e565b61109c565b5b61067d576040517f08c379a000000000000000000000000000000000000000000000000000000000815260040161067490612bfc565b60405180910390fd5b6106878383611286565b505050565b61069d61069761127e565b8261133f565b6106dc576040517f08c379a00000000000000000000000000000000000000000000000000000000081526004016106d390612c8e565b60405180910390fd5b6106e78383836113d4565b505050565b606060006107206106fc846116cd565b60405160200161070c9190612d36565b60405160208183030381529060405261179b565b90506107616040518060400160405280600b81526020017f72616e6420736565643a20000000000000000000000000000000000000000000815250826117ce565b600a80549050816107729190612d87565b90506107b36040518060400160405280601181526020017f72616e6420666972737420776f72643a20000000000000000000000000000000815250826117ce565b600a81815481106107c7576107c6612db8565b5b9060005260206000200180546107dc90612ac7565b80601f016020809104026020016040519081016040528092919081815260200182805461080890612ac7565b80156108555780601f1061082a57610100808354040283529160200191610855565b820191906000526020600020905b81548152906001019060200180831161083857829003601f168201915b5050505050915050919050565b61087d83838360405180602001604052806000815250610b70565b505050565b60008061088e8361186a565b9050600073ffffffffffffffffffffffffffffffffffffffff168173ffffffffffffffffffffffffffffffffffffffff16036108ff576040517f08c379a00000000000000000000000000000000000000000000000000000000081526004016108f690612e33565b60405180910390fd5b80915050919050565b60008073ffffffffffffffffffffffffffffffffffffffff168273ffffffffffffffffffffffffffffffffffffffff1603610978576040517f08c379a000000000000000000000000000000000000000000000000000000000815260040161096f90612ec5565b60405180910390fd5b600360008373ffffffffffffffffffffffffffffffffffffffff1673ffffffffffffffffffffffffffffffffffffffff168152602001908152602001600020549050919050565b60006109cb60076118a7565b905090565b6060600180546109df90612ac7565b80601f0160208091040260200160405190810160405280929190818152602001828054610a0b90612ac7565b8015610a585780601f10610a2d57610100808354040283529160200191610a58565b820191906000526020600020905b815481529060010190602001808311610a3b57829003601f168201915b5050505050905090565b610a74610a6d61127e565b83836118b5565b5050565b60606000610aac610a88846116cd565b604051602001610a989190612f31565b60405160208183030381529060405261179b565b9050600b8054905081610abf9190612d87565b9050600b8181548110610ad557610ad4612db8565b5b906000526020600020018054610aea90612ac7565b80601f0160208091040260200160405190810160405280929190818152602001828054610b1690612ac7565b8015610b635780601f10610b3857610100808354040283529160200191610b63565b820191906000526020600020905b815481529060010190602001808311610b4657829003601f168201915b5050505050915050919050565b610b81610b7b61127e565b8361133f565b610bc0576040517f08c379a0000000000000000000000000000000000000000000000000000000008152600401610bb790612c8e565b60405180910390fd5b610bcc84848484611a21565b50505050565b60606000610c06610be2846116cd565b604051602001610bf29190612f9f565b60405160208183030381529060405261179b565b9050600c8054905081610c199190612d87565b9050600c8181548110610c2f57610c2e612db8565b5b906000526020600020018054610c4490612ac7565b80601f0160208091040260200160405190810160405280929190818152602001828054610c7090612ac7565b8015610cbd5780601f10610c9257610100808354040283529160200191610cbd565b820191906000526020600020905b815481529060010190602001808311610ca057829003601f168201915b5050505050915050919050565b6060610cd582611233565b6000600660008481526020019081526020016000208054610cf590612ac7565b80601f0160208091040260200160405190810160405280929190818152602001828054610d2190612ac7565b8015610d6e5780601f10610d4357610100808354040283529160200191610d6e565b820191906000526020600020905b815481529060010190602001808311610d5157829003601f168201915b505050505090506000610d7f611a7d565b90506000815103610d94578192505050610dd7565b600082511115610dc9578082604051602001610db1929190612fc1565b60405160208183030381529060405292505050610dd7565b610dd284611a94565b925050505b919050565b6000610de860076118a7565b905080600860009054906101000a900460ff1660ff1611610e3e576040517f08c379a0000000000000000000000000000000000000000000000000000000008152600401610e3590613031565b60405180910390fd5b6000610e49826106ec565b90506000610e5683610a78565b90506000610e6384610bd2565b90506000838383604051602001610e7c93929190613051565b60405160208183030381529060405290506000600982604051602001610ea3929190613166565b6040516020818303038152906040529050610ef26040518060400160405280601581526020017f0a2d2d2d2d2d2d2d2d2d2d2d2d2d2d2d2d2d2d2d2d0000000000000000000000815250611130565b610efb81611130565b610f396040518060400160405280601581526020017f2d2d2d2d2d2d2d2d2d2d2d2d2d2d2d2d2d2d2d2d0a0000000000000000000000815250611130565b6000610f6d83610f4884611afc565b604051602001610f599291906132eb565b604051602081830303815290604052611afc565b9050600081604051602001610f82919061337c565b6040516020818303038152906040529050610fd16040518060400160405280601681526020017f0a2d2d2d2d2d20546f6b656e20555249202d2d2d2d2d00000000000000000000815250611130565b610fda81611130565b6110186040518060400160405280601681526020017f2d2d2d2d2d2d2d2d2d2d2d2d2d2d2d2d2d2d2d2d2d0a00000000000000000000815250611130565b6110223389611c93565b61102c8882611cb1565b61104f604051806060016040528060258152602001613c2f602591398933611d1e565b6110596007611dbd565b7febb98688741ffa4c7589bf325de30cf7becb63de567842e1ccdb6cb949fdc82c338960405161108a92919061339e565b60405180910390a15050505050505050565b6000600560008473ffffffffffffffffffffffffffffffffffffffff1673ffffffffffffffffffffffffffffffffffffffff16815260200190815260200160002060008373ffffffffffffffffffffffffffffffffffffffff1673ffffffffffffffffffffffffffffffffffffffff16815260200190815260200160002060009054906101000a900460ff16905092915050565b6111c681604051602401611144919061263d565b6040516020818303038152906040527f41304fac000000000000000000000000000000000000000000000000000000007bffffffffffffffffffffffffffffffffffffffffffffffffffffffff19166020820180517bffffffffffffffffffffffffffffffffffffffffffffffffffffffff8381831617835250505050611dd3565b50565b60007f01ffc9a7000000000000000000000000000000000000000000000000000000007bffffffffffffffffffffffffffffffffffffffffffffffffffffffff1916827bffffffffffffffffffffffffffffffffffffffffffffffffffffffff1916149050919050565b61123c81611dfc565b61127b576040517f08c379a000000000000000000000000000000000000000000000000000000000815260040161127290612e33565b60405180910390fd5b50565b600033905090565b816004600083815260200190815260200160002060006101000a81548173ffffffffffffffffffffffffffffffffffffffff021916908373ffffffffffffffffffffffffffffffffffffffff160217905550808273ffffffffffffffffffffffffffffffffffffffff166112f983610882565b73ffffffffffffffffffffffffffffffffffffffff167f8c5be1e5ebec7d5bd14f71427d1e84f3dd0314c0f7b2291e5b200ac8c7c3b92560405160405180910390a45050565b60008061134b83610882565b90508073ffffffffffffffffffffffffffffffffffffffff168473ffffffffffffffffffffffffffffffffffffffff16148061138d575061138c818561109c565b5b806113cb57508373ffffffffffffffffffffffffffffffffffffffff166113b38461052f565b73ffffffffffffffffffffffffffffffffffffffff16145b91505092915050565b8273ffffffffffffffffffffffffffffffffffffffff166113f482610882565b73ffffffffffffffffffffffffffffffffffffffff161461144a576040517f08c379a000000000000000000000000000000000000000000000000000000000815260040161144190613439565b60405180910390fd5b600073ffffffffffffffffffffffffffffffffffffffff168273ffffffffffffffffffffffffffffffffffffffff16036114b9576040517f08c379a00000000000000000000000000000000000000000000000000000000081526004016114b0906134cb565b60405180910390fd5b6114c68383836001611e3d565b8273ffffffffffffffffffffffffffffffffffffffff166114e682610882565b73ffffffffffffffffffffffffffffffffffffffff161461153c576040517f08c379a000000000000000000000000000000000000000000000000000000000815260040161153390613439565b60405180910390fd5b6004600082815260200190815260200160002060006101000a81549073ffffffffffffffffffffffffffffffffffffffff02191690556001600360008573ffffffffffffffffffffffffffffffffffffffff1673ffffffffffffffffffffffffffffffffffffffff168152602001908152602001600020600082825403925050819055506001600360008473ffffffffffffffffffffffffffffffffffffffff1673ffffffffffffffffffffffffffffffffffffffff16815260200190815260200160002060008282540192505081905550816002600083815260200190815260200160002060006101000a81548173ffffffffffffffffffffffffffffffffffffffff021916908373ffffffffffffffffffffffffffffffffffffffff160217905550808273ffffffffffffffffffffffffffffffffffffffff168473ffffffffffffffffffffffffffffffffffffffff167fddf252ad1be2c89b69c2b068fc378daa952ba7f163c4a11628f55a4df523b3ef60405160405180910390a46116c88383836001611f63565b505050565b6060600060016116dc84611f69565b01905060008167ffffffffffffffff8111156116fb576116fa6128aa565b5b6040519080825280601f01601f19166020018201604052801561172d5781602001600182028036833780820191505090505b509050600082602001820190505b600115611790578080600190039150507f3031323334353637383961626364656600000000000000000000000000000000600a86061a8153600a858161178457611783612d58565b5b0494506000850361173b575b819350505050919050565b6000816040516020016117ae91906134eb565b6040516020818303038152906040528051906020012060001c9050919050565b61186682826040516024016117e4929190613502565b6040516020818303038152906040527fb60e72cc000000000000000000000000000000000000000000000000000000007bffffffffffffffffffffffffffffffffffffffffffffffffffffffff19166020820180517bffffffffffffffffffffffffffffffffffffffffffffffffffffffff8381831617835250505050611dd3565b5050565b60006002600083815260200190815260200160002060009054906101000a900473ffffffffffffffffffffffffffffffffffffffff169050919050565b600081600001549050919050565b8173ffffffffffffffffffffffffffffffffffffffff168373ffffffffffffffffffffffffffffffffffffffff1603611923576040517f08c379a000000000000000000000000000000000000000000000000000000000815260040161191a9061357e565b60405180910390fd5b80600560008573ffffffffffffffffffffffffffffffffffffffff1673ffffffffffffffffffffffffffffffffffffffff16815260200190815260200160002060008473ffffffffffffffffffffffffffffffffffffffff1673ffffffffffffffffffffffffffffffffffffffff16815260200190815260200160002060006101000a81548160ff0219169083151502179055508173ffffffffffffffffffffffffffffffffffffffff168373ffffffffffffffffffffffffffffffffffffffff167f17307eab39ab6107e8899845ad3d59bd9653f200f220920489ca2b5937696c3183604051611a149190612592565b60405180910390a3505050565b611a2c8484846113d4565b611a38848484846120bc565b611a77576040517f08c379a0000000000000000000000000000000000000000000000000000000008152600401611a6e90613610565b60405180910390fd5b50505050565b606060405180602001604052806000815250905090565b6060611a9f82611233565b6000611aa9611a7d565b90506000815111611ac95760405180602001604052806000815250611af4565b80611ad3846116cd565b604051602001611ae4929190612fc1565b6040516020818303038152906040525b915050919050565b606060008251905060008103611b245760405180602001604052806000815250915050611c8e565b60006003600283611b35919061365f565b611b3f9190613693565b6004611b4b91906136c4565b90506000602082611b5c919061365f565b67ffffffffffffffff811115611b7557611b746128aa565b5b6040519080825280601f01601f191660200182016040528015611ba75781602001600182028036833780820191505090505b5090506000604051806060016040528060408152602001613c54604091399050600181016020830160005b86811015611c4b5760038101905062ffffff818a015116603f8160121c168401518060081b905060ff603f83600c1c1686015116810190508060081b905060ff603f8360061c1686015116810190508060081b905060ff603f831686015116810190508060e01b90508084526004840193505050611bd2565b506003860660018114611c655760028114611c7557611c80565b613d3d60f01b6002830352611c80565b603d60f81b60018303525b508484525050819450505050505b919050565b611cad828260405180602001604052806000815250612243565b5050565b611cba82611dfc565b611cf9576040517f08c379a0000000000000000000000000000000000000000000000000000000008152600401611cf090613778565b60405180910390fd5b80600660008481526020019081526020016000209081611d19919061392f565b505050565b611db8838383604051602401611d3693929190613a01565b6040516020818303038152906040527f1c7ec448000000000000000000000000000000000000000000000000000000007bffffffffffffffffffffffffffffffffffffffffffffffffffffffff19166020820180517bffffffffffffffffffffffffffffffffffffffffffffffffffffffff8381831617835250505050611dd3565b505050565b6001816000016000828254019250508190555050565b60008151905060006a636f6e736f6c652e6c6f679050602083016000808483855afa5050505050565b60008073ffffffffffffffffffffffffffffffffffffffff16611e1e8361186a565b73ffffffffffffffffffffffffffffffffffffffff1614159050919050565b6001811115611f5d57600073ffffffffffffffffffffffffffffffffffffffff168473ffffffffffffffffffffffffffffffffffffffff1614611ed15780600360008673ffffffffffffffffffffffffffffffffffffffff1673ffffffffffffffffffffffffffffffffffffffff1681526020019081526020016000206000828254611ec99190613a3f565b925050819055505b600073ffffffffffffffffffffffffffffffffffffffff168373ffffffffffffffffffffffffffffffffffffffff1614611f5c5780600360008573ffffffffffffffffffffffffffffffffffffffff1673ffffffffffffffffffffffffffffffffffffffff1681526020019081526020016000206000828254611f54919061365f565b925050819055505b5b50505050565b50505050565b600080600090507a184f03e93ff9f4daa797ed6e38ed64bf6a1f0100000000000000008310611fc7577a184f03e93ff9f4daa797ed6e38ed64bf6a1f0100000000000000008381611fbd57611fbc612d58565b5b0492506040810190505b6d04ee2d6d415b85acef81000000008310612004576d04ee2d6d415b85acef81000000008381611ffa57611ff9612d58565b5b0492506020810190505b662386f26fc10000831061203357662386f26fc10000838161202957612028612d58565b5b0492506010810190505b6305f5e100831061205c576305f5e100838161205257612051612d58565b5b0492506008810190505b612710831061208157612710838161207757612076612d58565b5b0492506004810190505b606483106120a4576064838161209a57612099612d58565b5b0492506002810190505b600a83106120b3576001810190505b80915050919050565b60006120dd8473ffffffffffffffffffffffffffffffffffffffff1661229e565b15612236578373ffffffffffffffffffffffffffffffffffffffff1663150b7a0261210661127e565b8786866040518563ffffffff1660e01b81526004016121289493929190613ac8565b6020604051808303816000875af192505050801561216457506040513d601f19601f820116820180604052508101906121619190613b29565b60015b6121e6573d8060008114612194576040519150601f19603f3d011682016040523d82523d6000602084013e612199565b606091505b5060008151036121de576040517f08c379a00000000000000000000000000000000000000000000000000000000081526004016121d590613610565b60405180910390fd5b805181602001fd5b63150b7a0260e01b7bffffffffffffffffffffffffffffffffffffffffffffffffffffffff1916817bffffffffffffffffffffffffffffffffffffffffffffffffffffffff19161491505061223b565b600190505b949350505050565b61224d83836122c1565b61225a60008484846120bc565b612299576040517f08c379a000000000000000000000000000000000000000000000000000000000815260040161229090613610565b60405180910390fd5b505050565b6000808273ffffffffffffffffffffffffffffffffffffffff163b119050919050565b600073ffffffffffffffffffffffffffffffffffffffff168273ffffffffffffffffffffffffffffffffffffffff1603612330576040517f08c379a000000000000000000000000000000000000000000000000000000000815260040161232790613ba2565b60405180910390fd5b61233981611dfc565b15612379576040517f08c379a000000000000000000000000000000000000000000000000000000000815260040161237090613c0e565b60405180910390fd5b612387600083836001611e3d565b61239081611dfc565b156123d0576040517f08c379a00000000000000000000000000000000000000000000000000000000081526004016123c790613c0e565b60405180910390fd5b6001600360008473ffffffffffffffffffffffffffffffffffffffff1673ffffffffffffffffffffffffffffffffffffffff16815260200190815260200160002060008282540192505081905550816002600083815260200190815260200160002060006101000a81548173ffffffffffffffffffffffffffffffffffffffff021916908373ffffffffffffffffffffffffffffffffffffffff160217905550808273ffffffffffffffffffffffffffffffffffffffff16600073ffffffffffffffffffffffffffffffffffffffff167fddf252ad1be2c89b69c2b068fc378daa952ba7f163c4a11628f55a4df523b3ef60405160405180910390a46124da600083836001611f63565b5050565b6000604051905090565b600080fd5b600080fd5b60007fffffffff0000000000000000000000000000000000000000000000000000000082169050919050565b612527816124f2565b811461253257600080fd5b50565b6000813590506125448161251e565b92915050565b6000602082840312156125605761255f6124e8565b5b600061256e84828501612535565b91505092915050565b60008115159050919050565b61258c81612577565b82525050565b60006020820190506125a76000830184612583565b92915050565b600081519050919050565b600082825260208201905092915050565b60005b838110156125e75780820151818401526020810190506125cc565b60008484015250505050565b6000601f19601f8301169050919050565b600061260f826125ad565b61261981856125b8565b93506126298185602086016125c9565b612632816125f3565b840191505092915050565b600060208201905081810360008301526126578184612604565b905092915050565b6000819050919050565b6126728161265f565b811461267d57600080fd5b50565b60008135905061268f81612669565b92915050565b6000602082840312156126ab576126aa6124e8565b5b60006126b984828501612680565b91505092915050565b600073ffffffffffffffffffffffffffffffffffffffff82169050919050565b60006126ed826126c2565b9050919050565b6126fd816126e2565b82525050565b600060208201905061271860008301846126f4565b92915050565b612727816126e2565b811461273257600080fd5b50565b6000813590506127448161271e565b92915050565b60008060408385031215612761576127606124e8565b5b600061276f85828601612735565b925050602061278085828601612680565b9150509250929050565b6000806000606084860312156127a3576127a26124e8565b5b60006127b186828701612735565b93505060206127c286828701612735565b92505060406127d386828701612680565b9150509250925092565b6000602082840312156127f3576127f26124e8565b5b600061280184828501612735565b91505092915050565b6128138161265f565b82525050565b600060208201905061282e600083018461280a565b92915050565b61283d81612577565b811461284857600080fd5b50565b60008135905061285a81612834565b92915050565b60008060408385031215612877576128766124e8565b5b600061288585828601612735565b92505060206128968582860161284b565b9150509250929050565b600080fd5b600080fd5b7f4e487b7100000000000000000000000000000000000000000000000000000000600052604160045260246000fd5b6128e2826125f3565b810181811067ffffffffffffffff82111715612901576129006128aa565b5b80604052505050565b60006129146124de565b905061292082826128d9565b919050565b600067ffffffffffffffff8211156129405761293f6128aa565b5b612949826125f3565b9050602081019050919050565b82818337600083830152505050565b600061297861297384612925565b61290a565b905082815260208101848484011115612994576129936128a5565b5b61299f848285612956565b509392505050565b600082601f8301126129bc576129bb6128a0565b5b81356129cc848260208601612965565b91505092915050565b600080600080608085870312156129ef576129ee6124e8565b5b60006129fd87828801612735565b9450506020612a0e87828801612735565b9350506040612a1f87828801612680565b925050606085013567ffffffffffffffff811115612a4057612a3f6124ed565b5b612a4c878288016129a7565b91505092959194509250565b60008060408385031215612a6f57612a6e6124e8565b5b6000612a7d85828601612735565b9250506020612a8e85828601612735565b9150509250929050565b7f4e487b7100000000000000000000000000000000000000000000000000000000600052602260045260246000fd5b60006002820490506001821680612adf57607f821691505b602082108103612af257612af1612a98565b5b50919050565b7f4552433732313a20617070726f76616c20746f2063757272656e74206f776e6560008201527f7200000000000000000000000000000000000000000000000000000000000000602082015250565b6000612b546021836125b8565b9150612b5f82612af8565b604082019050919050565b60006020820190508181036000830152612b8381612b47565b9050919050565b7f4552433732313a20617070726f76652063616c6c6572206973206e6f7420746f60008201527f6b656e206f776e6572206f7220617070726f76656420666f7220616c6c000000602082015250565b6000612be6603d836125b8565b9150612bf182612b8a565b604082019050919050565b60006020820190508181036000830152612c1581612bd9565b9050919050565b7f4552433732313a2063616c6c6572206973206e6f7420746f6b656e206f776e6560008201527f72206f7220617070726f76656400000000000000000000000000000000000000602082015250565b6000612c78602d836125b8565b9150612c8382612c1c565b604082019050919050565b60006020820190508181036000830152612ca781612c6b565b9050919050565b600081905092915050565b7f46495253545f574f524400000000000000000000000000000000000000000000600082015250565b6000612cef600a83612cae565b9150612cfa82612cb9565b600a82019050919050565b6000612d10826125ad565b612d1a8185612cae565b9350612d2a8185602086016125c9565b80840191505092915050565b6000612d4182612ce2565b9150612d4d8284612d05565b915081905092915050565b7f4e487b7100000000000000000000000000000000000000000000000000000000600052601260045260246000fd5b6000612d928261265f565b9150612d9d8361265f565b925082612dad57612dac612d58565b5b828206905092915050565b7f4e487b7100000000000000000000000000000000000000000000000000000000600052603260045260246000fd5b7f4552433732313a20696e76616c696420746f6b656e2049440000000000000000600082015250565b6000612e1d6018836125b8565b9150612e2882612de7565b602082019050919050565b60006020820190508181036000830152612e4c81612e10565b9050919050565b7f4552433732313a2061646472657373207a65726f206973206e6f74206120766160008201527f6c6964206f776e65720000000000000000000000000000000000000000000000602082015250565b6000612eaf6029836125b8565b9150612eba82612e53565b604082019050919050565b60006020820190508181036000830152612ede81612ea2565b9050919050565b7f5345434f4e445f574f5244000000000000000000000000000000000000000000600082015250565b6000612f1b600b83612cae565b9150612f2682612ee5565b600b82019050919050565b6000612f3c82612f0e565b9150612f488284612d05565b915081905092915050565b7f54484952445f574f524400000000000000000000000000000000000000000000600082015250565b6000612f89600a83612cae565b9150612f9482612f53565b600a82019050919050565b6000612faa82612f7c565b9150612fb68284612d05565b915081905092915050565b6000612fcd8285612d05565b9150612fd98284612d05565b91508190509392505050565b7f7570706572206d696e74206c696d69742e2e2e00000000000000000000000000600082015250565b600061301b6013836125b8565b915061302682612fe5565b602082019050919050565b6000602082019050818103600083015261304a8161300e565b9050919050565b600061305d8286612d05565b91506130698285612d05565b91506130758284612d05565b9150819050949350505050565b60008190508160005260206000209050919050565b600081546130a481612ac7565b6130ae8186612cae565b945060018216600081146130c957600181146130de57613111565b60ff1983168652811515820286019350613111565b6130e785613082565b60005b83811015613109578154818901526001820191506020810190506130ea565b838801955050505b50505092915050565b7f3c2f746578743e3c2f7376673e00000000000000000000000000000000000000600082015250565b6000613150600d83612cae565b915061315b8261311a565b600d82019050919050565b60006131728285613097565b915061317e8284612d05565b915061318982613143565b91508190509392505050565b7f7b226e616d65223a202200000000000000000000000000000000000000000000600082015250565b60006131cb600a83612cae565b91506131d682613195565b600a82019050919050565b7f222c20226465736372697074696f6e223a20224120686967686c79206163636c60008201527f61696d656420636f6c6c656374696f6e206f6620737175617265732e222c202260208201527f696d616765223a2022646174613a696d6167652f7376672b786d6c3b6261736560408201527f36342c0000000000000000000000000000000000000000000000000000000000606082015250565b6000613289606383612cae565b9150613294826131e1565b606382019050919050565b7f227d000000000000000000000000000000000000000000000000000000000000600082015250565b60006132d5600283612cae565b91506132e08261329f565b600282019050919050565b60006132f6826131be565b91506133028285612d05565b915061330d8261327c565b91506133198284612d05565b9150613324826132c8565b91508190509392505050565b7f646174613a6170706c69636174696f6e2f6a736f6e3b6261736536342c000000600082015250565b6000613366601d83612cae565b915061337182613330565b601d82019050919050565b600061338782613359565b91506133938284612d05565b915081905092915050565b60006040820190506133b360008301856126f4565b6133c0602083018461280a565b9392505050565b7f4552433732313a207472616e736665722066726f6d20696e636f72726563742060008201527f6f776e6572000000000000000000000000000000000000000000000000000000602082015250565b60006134236025836125b8565b915061342e826133c7565b604082019050919050565b6000602082019050818103600083015261345281613416565b9050919050565b7f4552433732313a207472616e7366657220746f20746865207a65726f2061646460008201527f7265737300000000000000000000000000000000000000000000000000000000602082015250565b60006134b56024836125b8565b91506134c082613459565b604082019050919050565b600060208201905081810360008301526134e4816134a8565b9050919050565b60006134f78284612d05565b915081905092915050565b6000604082019050818103600083015261351c8185612604565b905061352b602083018461280a565b9392505050565b7f4552433732313a20617070726f766520746f2063616c6c657200000000000000600082015250565b60006135686019836125b8565b915061357382613532565b602082019050919050565b600060208201905081810360008301526135978161355b565b9050919050565b7f4552433732313a207472616e7366657220746f206e6f6e20455243373231526560008201527f63656976657220696d706c656d656e7465720000000000000000000000000000602082015250565b60006135fa6032836125b8565b91506136058261359e565b604082019050919050565b60006020820190508181036000830152613629816135ed565b9050919050565b7f4e487b7100000000000000000000000000000000000000000000000000000000600052601160045260246000fd5b600061366a8261265f565b91506136758361265f565b925082820190508082111561368d5761368c613630565b5b92915050565b600061369e8261265f565b91506136a98361265f565b9250826136b9576136b8612d58565b5b828204905092915050565b60006136cf8261265f565b91506136da8361265f565b92508282026136e88161265f565b915082820484148315176136ff576136fe613630565b5b5092915050565b7f45524337323155524953746f726167653a2055524920736574206f66206e6f6e60008201527f6578697374656e7420746f6b656e000000000000000000000000000000000000602082015250565b6000613762602e836125b8565b915061376d82613706565b604082019050919050565b6000602082019050818103600083015261379181613755565b9050919050565b60006020601f8301049050919050565b600082821b905092915050565b6000600883026137e57fffffffffffffffffffffffffffffffffffffffffffffffffffffffffffffffff826137a8565b6137ef86836137a8565b95508019841693508086168417925050509392505050565b6000819050919050565b600061382c6138276138228461265f565b613807565b61265f565b9050919050565b6000819050919050565b61384683613811565b61385a61385282613833565b8484546137b5565b825550505050565b600090565b61386f613862565b61387a81848461383d565b505050565b5b8181101561389e57613893600082613867565b600181019050613880565b5050565b601f8211156138e3576138b481613082565b6138bd84613798565b810160208510156138cc578190505b6138e06138d885613798565b83018261387f565b50505b505050565b600082821c905092915050565b6000613906600019846008026138e8565b1980831691505092915050565b600061391f83836138f5565b9150826002028217905092915050565b613938826125ad565b67ffffffffffffffff811115613951576139506128aa565b5b61395b8254612ac7565b6139668282856138a2565b600060209050601f8311600181146139995760008415613987578287015190505b6139918582613913565b8655506139f9565b601f1984166139a786613082565b60005b828110156139cf578489015182556001820191506020850194506020810190506139aa565b868310156139ec57848901516139e8601f8916826138f5565b8355505b6001600288020188555050505b505050505050565b60006060820190508181036000830152613a1b8186612604565b9050613a2a602083018561280a565b613a3760408301846126f4565b949350505050565b6000613a4a8261265f565b9150613a558361265f565b9250828203905081811115613a6d57613a6c613630565b5b92915050565b600081519050919050565b600082825260208201905092915050565b6000613a9a82613a73565b613aa48185613a7e565b9350613ab48185602086016125c9565b613abd816125f3565b840191505092915050565b6000608082019050613add60008301876126f4565b613aea60208301866126f4565b613af7604083018561280a565b8181036060830152613b098184613a8f565b905095945050505050565b600081519050613b238161251e565b92915050565b600060208284031215613b3f57613b3e6124e8565b5b6000613b4d84828501613b14565b91505092915050565b7f4552433732313a206d696e7420746f20746865207a65726f2061646472657373600082015250565b6000613b8c6020836125b8565b9150613b9782613b56565b602082019050919050565b60006020820190508181036000830152613bbb81613b7f565b9050919050565b7f4552433732313a20746f6b656e20616c7265616479206d696e74656400000000600082015250565b6000613bf8601c836125b8565b9150613c0382613bc2565b602082019050919050565b60006020820190508181036000830152613c2781613beb565b905091905056fe416e204e465420772f20494420257320686173206265656e206d696e74656420746f2025734142434445464748494a4b4c4d4e4f505152535455565758595a6162636465666768696a6b6c6d6e6f707172737475767778797a303132333435363738392b2fa2646970667358221220571910d9e34b59f4f68a7865249a531740b40a744b30ddd1740a2adb9289b8bd64736f6c634300081100333c73766720786d6c6e733d27687474703a2f2f7777772e77332e6f72672f323030302f73766727207072657365727665417370656374526174696f3d27784d696e594d696e206d656574272076696577426f783d273020302033353020333530273e3c7374796c653e2e62617365207b2066696c6c3a2077686974653b20666f6e742d66616d696c793a2073657269663b20666f6e742d73697a653a20323470783b207d3c2f7374796c653e3c726563742077696474683d273130302527206865696768743d2731303025272066696c6c3d27626c61636b27202f3e3c7465787420783d273530252720793d273530252720636c6173733d27626173652720646f6d696e616e742d626173656c696e653d276d6964646c652720746578742d616e63686f723d276d6964646c65273e",
  "linkReferences": {},
  "deployedLinkReferences": {}
}